:100000000C942A000C9434000C9434000C943400AA
:100010000C9434000C9434000C9434000C94340090
:100020000C9434000C9434000C9434000C94340080
:100030000C9434000C9434000C9434000C94340070
:100040000C9434000C9434000C9434000C94340060
:100050000C94340011241FBECFE5D8E0DEBFCDBF25
:100060000E9457000C94A6000C9400008FB5826A81
:100070008FBD8EB58B618EBD87E893E197BD86BD40
:1000800081B3806381BB089526E130E0AC01429FDB
:10009000C001439F900D529F900D112469E070E0C4
:1000A0000E947F0060567F4F7BBD6ABD0895CF934D
:1000B000DF930E943600C0E9D1E080E090E00E942A
:1000C000440080E197E2FE013197F1F70197D9F7FB
:1000D0008AE590E00E94440080E197E2FE013197BA
:1000E000F1F70197D9F784EB90E00E94440080E19A
:1000F00097E2FE013197F1F70197D9F7DECF97FB31
:10010000092E07260AD077FD04D00CD006D0002097
:100110001AF4709561957F4F0895F6F79095819543
:100120009F4F0895AA1BBB1B51E107C0AA1FBB1F0D
:10013000A617B70710F0A61BB70B881F991F5A9573
:10014000A9F780959095BC01CD010895F894FFCF53
:00000001FF
